:020000040800F2
:1000000030050020050100087F22000805210008B6
:100010007D220008050D0008E12600080000000010
:10002000000000000000000000000000F5220008B1
:10003000590F00080000000081220008F722000884
:100040001F0100081F0100081F0100081F01000810
:100050001F0100081F0100081F0100081F01000800
:100060001F0100081F0100081F0100081F010008F0
:100070001F0100081F0100081F0100081F010008E0
:100080001F0100081F0100081F0100081F010008D0
:100090001F0100081F0100081F0100081F010008C0
:1000A0001F0100081F0100081F0100081F010008B0
:1000B0005D2300081F0100081F0100081F01000840
:1000C0001F0100081F0100081F0100081F01000890
:1000D0001F010008C9260008D52600081F010008D6
:1000E0001F0100081F0100081F010008DFF810D0E1
:1000F00000F044FC004800479D300008AFF300804A
:10010000300500200648804706480047FEE7FEE726
:10011000FEE7FEE7FEE7FEE7FEE7FEE7FEE7FEE7B7
:1001200059230008ED000008202A04DB203A21FAB8
:1001300002F00021704721FA02F3D040C2F1200200
:100140009140084319467047D2B201E000F8012BF4
:10015000491EFBD270470022F6E710B513460A4647
:1001600004461946FFF7F0FF204610BDCAB2401EF4
:1001700010F8011F8A4202D00029F9D100207047EF
:10018000421C10F8011B0029FBD1801A70470000A7
:100190000FB400B58DB010A909900B9000914FF0ED
:1001A000FF300A9000200C90054806900548079003
:1001B0006A4609A80F9900F07FFA0DB05DF814FBAC
:1001C000D5060008F30600082DE9FF5F1D464FF035
:1001D000FF3BD5E9014691465F464FF00008A9690B
:1001E0007F1C01988847296A824688470028F6D1F3
:1001F000BAF1FF3F0CD024F4C064002E19DD600674
:1002000014D5BAF12B0F09D0BAF12D0F0ED103E09E
:10021000584604B0BDE8F09F44F48064A9697F1C8F
:1002200001988847761E8246002E02DDBAF1300F13
:1002300003D0B9F1000F26D032E0A969761E44F44C
:1002400000747F1C019888478246002E05DDBAF1B4
:10025000780F06D0BAF1580F03D0B9F1000F10D0C3
:100260001EE0B9F1000F02D0B9F1100F18D1A96941
:10027000761E24F400747F1C019888478246102063
:1002800002E0082000E00A20814609E008FB090896
:10029000A969761E44F400747F1C01988847824641
:1002A000002E05DD4946504600F0F1F90028EDDA50
:1002B000E96901988847A00502D46FF00100A8E71A
:1002C000E00725D1600613D5600502D5C8F100000E
:1002D00000E0404629680A1D2A600968220501D508
:1002E000087015E0220701D5088011E008600FE0D2
:1002F0002868011D29600068210502D580F800806A
:1003000006E0210702D5A0F8008001E0C0F80080D7
:1003100038467EE72DE9FE4F804681EA0300C00F94
:100320000C46009021F0004123F00045B8EB02009C
:10033000A94105D24046214690461C460B4602463E
:1003400023F00040104347D0270DC7F30A00C3F342
:100350000A510290401A019040286BDAC3F313004F
:1003600040F4801B0098924620B10023D2EB030A90
:1003700063EB0B0B01985946C0F14002504600F068
:1003800065F906460D4650465946019A00F06DF94A
:1003900010EB08006141002487EA115284EAE773F8
:1003A0001A4340D0009A62B3019A012A4FEA0752D9
:1003B00015DC001B61EB02014FF0004202EA07521C
:1003C000CDE90042001C41F5801132462B4600F079
:1003D000E7F903B0BDE8F08F40462146F9E7001B7E
:1003E00061EB0201001C41F5801300185B412018ED
:1003F000A2F5001747EB030140EAD570B6196D412D
:1004000011E06D084FEA360645EAC0754FEA07521B
:10041000001B61EB0201001C41F5801149084FEA05
:1004200030000019514132462B4603B0BDE8F04F71
:1004300000F0A7B90098012240000023D0EB02028F
:1004400063EBE073009821464FEAE074B8EB0000DC
:1004500061EB0401E9E783F000435BE781F00041D1
:1004600058E72DE9FE4F81EA030404F0004421F02F
:10047000004100944FF0000B23F0004350EA0104C8
:100480005ED052EA03045BD0C3F30A54C1F30A55A9
:100490002C44A4F2F3340194A0FB0254C1F31301E1
:1004A00041F48011C3F3130343F4801301FB0244AE
:1004B00000FB034E840A970A44EA815447EA8357B3
:1004C000A4FB076802958D0A05FB07854FEA932C6C
:1004D00004FB0C542705029D4FEA065847EA1637DD
:1004E000B5EB08056EEB070C870E920E47EA8117F5
:1004F00042EA8312A7FB0201B6EB0B0164EB000496
:100500002B0D43EA0C335E1844EB1C50DA4651467F
:10051000E7FB0201C5F313044FEA0B3343EA14531C
:100520004FEA0432019C43EA0603A4F10C0402944E
:10053000009CCDE900B400F033F903B0BDE8F08FC2
:1005400000200146F9E70EB540F233410291002147
:10055000CDE900110A460B4600F022F903B000BDB8
:1005600000F0004230F000400AD0C10D01F560718A
:10057000C0F3160042EA0151C20840071143704718
:1005800000200146704701F0004330B421F00041E3
:1005900050EA010206D00A0DA2F56072C1F3130100
:1005A000002A02DC30BC00207047440F44EAC1043A
:1005B000C100E01830BC00EBC25000F0ABB830B561
:1005C0000B46014600202022012409E021FA02F511
:1005D0009D4205D303FA02F5491B04FA02F52844AB
:1005E000151EA2F10102F1DC30BD2DE9F05F0546D8
:1005F000002092469B4688460646814640241BE0E2
:100600002846414647462246FFF78EFD53465A4646
:10061000C01A914110D311461846224600F016F830
:100620002D1A67EB01084F4622460120002100F0F9
:100630000DF817EB00094E41201EA4F10104DFDC88
:10064000484631462A464346BDE8F09F202A04DB4F
:10065000203A00FA02F1002070479140C2F12003D5
:1006600020FA03F3194390407047202A06DBCB178A
:10067000203A41FA02F043EAE07306E041FA02F35D
:10068000D040C2F1200291400843194670473A28F1
:1006900000D2303820F02002412A01D3A2F13700E5
:1006A000884201D34FF0FF307047000002681144C8
:1006B0001378016018467047D160044951610449BC
:1006C000116200211161114600F070B9AD060008F9
:1006D000A1090008426842B1016811F8013B23B149
:1006E000521EC0E90012184670470121C160881EE1
:1006F000704742685AB1C368016843B983688B4246
:1007000005D0491E521CC0E90012002070474FF06E
:10071000FF3070470029A8BF7047401C490008BF40
:1007200020F00100704710B4B0FA80FC00FA0CF021
:1007300050EA010404BF10BC704749B1CCF1200459
:1007400021FA04F411FA0CF118BF012121430843E6
:10075000A3EB0C01CB1D4FEA00614FEA102042BF12
:10076000002010BC704700EBC35010440029A4BF08
:1007700010BC7047401C490008BF20F0010010BCAD
:10078000704710B5141E73F1000408DA401C41F1E3
:10079000000192185B411A4301D120F0010010BD05
:1007A0002DE9F04D92469B4611B1B1FA81F202E07B
:1007B000B0FA80F220329046FFF748FF04460F4619
:1007C00040EA0A0041EA0B0153465A46084313D057
:1007D000114653EA010019D0C8F140025046FFF714
:1007E000A3FC05460E46504659464246FFF72EFFEB
:1007F000084305D0012004E020463946BDE8F08DCD
:100800000020054346EAE0762C4337430A98630507
:10081000E40AA0EB08000022FD0A44EA47540A302B
:1008200002D500200146E9E7010510196941DDE91B
:10083000084500196941BDE8F04DA2E72DE9F04DEA
:1008400081EA030404F0004B21F0004514464FF008
:10085000000A23F0004150EA050220D054EA0102C8
:100860001DD0C5F30A570246C5F31303C1F31300A5
:10087000C1F30A5640F4801543F48013A7EB060831
:10088000101BD64608F2FD3873EB050002D308F1C1
:10089000010801E092185B41B8F1000F03DA002073
:1008A0000146BDE8F08D00204FF4801106468446D5
:1008B0000EE0171B73EB050705D3121B63EB050353
:1008C00006434CEA010C49084FEA300092185B419C
:1008D00050EA0107EDD152EA030012D082EA040087
:1008E00083EA0501084305D0101BAB4106D2012263
:1008F000002306E000224FF0004302E06FF0010207
:1009000053101AEB06004CEB085110EB0A0041EBB8
:100910000B01BDE8F04DFFF734BFC1F30A52C1F33C
:10092000130140F2FF3341F480119A4202DA0020B1
:100930000146704740F233439A42A2F2334202DC4E
:100940005242FFF7F1BBFFF781BE000030B5041E35
:1009500071F1000404DB4FF00044404264EB0101FC
:10096000141E73F1000405DB1C464FF00043524295
:1009700063EB0403994208BF904230BD064C074D1B
:1009800006E0E06840F0010394E80700984710345F
:10099000AC42F6D3FFF7AEFB00330008203300086B
:1009A000C0B24FF4F05100F099B900002DE9F34FB7
:1009B0008BB04FF0000801F10C000C464FF0010B1A
:1009C00046460DF1080A019062690121019890479D
:1009D000051E2DD0252D2CD0216A8847C0B1626913
:1009E000012101989047216A88470028F7D1411ECC
:1009F00062690198904700E0761CA1690B988847CE
:100A0000216A88470028F7D1E1690B988847DBE71E
:100A1000A1690B9888470746A84201D1761CD3E705
:100A2000E1690B9888477F1C02D1B8F1000F6FD0A5
:100A300047E1002762693D463946019890472A28D8
:100A400004D162690121019890470125DFF888925D
:100A50006269012101989047A0F130010A290AD268
:100A60004F45E5DC07EB870100EB4107303FDFD462
:100A700045F01005ECE7E90601D46FF000476C285B
:100A80000AD04C2814D0682815D06A280DD07428B4
:100A90001CD07A281AD01DE0626901210198904784
:100AA0006C2802D045F0040514E045F002050DE085
:100AB00045F020050AE06269012101989047682805
:100AC00002D045F0080505E045F4006562690121A2
:100AD00001989047C4E9015765283DD019DC582892
:100AE0007AD00CDC452837D004DC252826D04128D4
:100AF00031D131E046282FD047282CD12CE05B287B
:100B000077D0612828D063287CD0642823D15AE08C
:100B1000D1E06F2848D008DC66281DD067281BD09C
:100B2000692821D06E2816D127E0702845D0732877
:100B300068D0752847D078280DD14DE0A1690B9871
:100B40008847054625283FF469AFE1690B98884737
:100B50006D1C3FF46AAFB4E023466A466FF00100B3
:100B60000B99AFF300809FE045F040006060A8075C
:100B700023464FF0000236D43EE0E8077FF447AF4B
:100B80002068011D21600068290501D506701BE75A
:100B9000290701D5068017E7A90703D5F117C0E992
:100BA000006111E706600FE745F040006060A807AC
:100BB00023464FF0080216D41EE040F60E0125EA47
:100BC0000100606016E045F040006060A807234621
:100BD0004FF00A0207D40FE045F040006060A8071C
:100BE00008D5234610226FF001000B99AFF3008067
:100BF0005AE007E0234610226FF001000B99FFF73F
:100C0000E3FA51E04FF000094F464B46632802D00B
:100C10005B2807D041E02079C00601D40120A06004
:100C200001273AE062690121019890475E2805D1C9
:100C30004FF001096269494601989047216939B925
:100C400000210A46534643F82120491C0829FADBB3
:100C5000B0B3216969B9C11700EBD16253110AEB36
:100C6000830122F01F02821A01200B689040034387
:100C70000B6062690121019890475D28E8D1B9F1C4
:100C8000000F09D00020514651F82020D24341F8EE
:100C90002020401C0828F7DB02AB224600976FF0AB
:100CA00001000B99AFF3008000280CDA401C08D13A
:100CB000BBF1000F05D04FF0FF300DB0BDE8F08F55
:100CC000FFE74046F9E7E90701D108F101080644CA
:100CD0004FF0000B78E60000CCCCCC0C7F2801D97B
:100CE000002208E0064A02EB5002C007127800D149
:100CF000120902F00F0201209040084070470000E6
:100D0000BE320008FEE7000010B5044600F0D6FB36
:100D10000349B0FBF1F16143491EFDD210BD000053
:100D200000093D000B4910B5081F00F071F80128BB
:100D300004D0BDE8104008A001F0EABC08480368F0
:100D40000448001FD0E90012BDE81040002002F066
:100D50000BBA0000040000206572726F720D0A0069
:100D60001800002010B52820FFF7CEFF4FF40071C7
:100D7000034800F065FA08B1002010BD012010BD45
:100D8000000C01401FB50A4B4FF40072012120B145
:100D900000200092CDE9010104E00320CDE900210B
:100DA000CDE902106946184600F05AF91FBD00004F
:100DB000000C014070B50D4D4FF4007421462846DB
:100DC00000F03EFA0028F9D02820FFF79DFF2146C9
:100DD000284600F035FA002806D02146284600F0C3
:100DE0002FFA0028F9D1012070BD0000000C01404D
:100DF00070B5002425466006040EFFF7DBFF08B13E
:100E000044F001046D1CEDB2082DF4D3204670BDF2
:100E10002DE9FF470546002089460290039000F027
:100E200087F8FFF79FFF002866D0344C4FF4007618
:100E30003146204600F004FA0028F9D03146204619
:100E400000F0FEF90028F9D1002402AEFFF7D0FF30
:100E50003055641CE4B2052CF8D39DF808109DF8B9
:100E600009009DF80A209DF80B3001441A441144F2
:100E70009DF80C2091423DD1FFF765FB204EDFF835
:100E8000848032464346FFF7ECFA04460F469DF84D
:100E90000800FFF758FB3B462246FFF73BFAFFF7F7
:100EA00072FB28609DF80B00FFF74DFB324643466E
:100EB000FFF7D7FA06460C469DF80A00FFF743FBFA
:100EC00032462346FFF726FAFFF75DFBC9F800001C
:100ED000FFF746FB04460E462868FFF741FBCDE9C5
:100EE000004602460B4608A001F012FC012004B0A7
:100EF000BDE8F0870020FAE70220F8E7000C014087
:100F00009A9999999999B93F48756D696469747905
:100F10003A20252E316625252C2054656D7065728A
:100F200061747572653A20252E3166430D0A000002
:100F300010B50020FFF726FF00224FF4007105488E
:100F400000F083F9142000F079F8BDE8104001208A
:100F5000FFF718BF000C0140704772B6FEE710B5EE
:100F600090F821100022022905D00421816380F825
:100F70002020012010BD01680B6823F00E030B60D8
:100F800001680B6823F001030B6090F84030C46BDC
:100F9000012101FA03F3636080F8211080F820201A
:100FA000104610BD10B590F821100024022903D07E
:100FB0000421816301243DE001680A6822F00E02E9
:100FC0000A6001680A6822F001020A601A4A016890
:100FD000914201D1012121E0174A1432914201D1FD
:100FE00010211BE0144A2832914201D1891515E0E5
:100FF000114A3C32914201D189140FE00E4A50321D
:10100000914202D14FF4803108E00B4A64329142A0
:1010100002D14FF4801101E04FF08071064A083A86
:101020005160012180F82110002180F82010416BCF
:1010300001B18847204610BD0800024070B5044643
:1010400000F008F90546601C02D00448007804440A
:1010500000F000F9401BA042FAD370BD2000002030
:101060002DE9F84FDFF8B8910024A9F1040B2346CD
:101070000F2709F1040AABF1040EC9E00125A540D0
:101080002A40AA427DD1674ED1F804C0ACEB0608D5
:10109000B44532D014DCBCF1030F3AD009DCBCF10A
:1010A000000F2AD0BCF1010F1CD0BCF1020F31D1CE
:1010B0001DE0BCF1110F17D0BCF1120F2AD119E0BD
:1010C000B8F5881F19D006DCB8F5803F15D0B8F503
:1010D000801F1FD111E0B8F5001F0ED0B8F5041F16
:1010E00018D10AE0CB6815E0CB681B1D12E0CB6875
:1010F00008330FE0CB680C330CE08B682BB1012B6D
:101100004FF0080303D0456104E0042302E00561C9
:1011100000E00023FF2A01D8064601E000F10406A2
:101120004FEA840501D9A5F12005D6F8008007FA19
:1011300005FC28EA0C0803FA05F548EA0508C6F894
:1011400000804D68ED0062D5374DAE6946F001066E
:10115000AE61AD6924F0030605F001050095334D3D
:1011600006EB050CDCF80850A607360F07FA06F860
:1011700025EA0805DFF8B880404503D14FF00008A4
:1011800017E044E0DFF8AC80404502D14FF00108A1
:101190000FE0DFF8A480404502D14FF0020808E0DC
:1011A000DFF89880404502D14FF0030801E04FF08E
:1011B000040808FA06F848EA0508CCF808804D68E3
:1011C000D9F80060ED024D4601D5164300E0964384
:1011D0002E604D68DAF80060AD02554601D5164321
:1011E00000E096432E604D68DBF80060AD035D467D
:1011F00001D5164300E096432E604D68DEF800608E
:10120000ED03754601D5164300E096432E60641C3D
:101210000D682A46E5407FF431AFBDE8F88F000045
:1012200008040140000011100010024000000140BD
:1012300000080140000C0140001001400014014072
:101240008068084000D0012070470AB101617047F2
:101250000904FBE701488068704700002000002077
:1012600002488168027811448160704720000020A4
:10127000074810B5016841F010010160032000F03B
:1012800075F80F2000F006F800F024F8002010BDDB
:101290000020024070B50D4D04464FF47A71287855
:1012A000B1FBF0F00A490968B1FBF0F000F0E2FA96
:1012B00048B9102C07D200222146501E00F036F803
:1012C00000206C6070BD012070BD00002000002077
:1012D0002C0000200C4808B5816941F001018161B2
:1012E000816901F001010091C16941F08051C16142
:1012F000C06900F0805000900448416821F0E0612E
:1013000041F00071416008BD001002400000014042
:10131000002809DB00F01F020121914040098000F4
:1013200000F1E020C0F8001170470000F0B40E4B4F
:101330001B680C46C3F30223C3F10705042D00D933
:101340000425191D072901D2002300E0DB1E012618
:1013500006FA05F1491E214099409E40761E16402E
:101360003143F0BC01F0F8B90CED00E0064900F0A3
:10137000070208684FF6FF03184040EA0220034ABC
:1013800010430860704700000CED00E00000FA0513
:101390002DE9F0470F46050061D0434E306800F05C
:1013A0000700B84209D2306820F0070038433060A7
:1013B000306800F00700B84251D128683B4C8107E3
:1013C00012D5400703D5606840F4E060606028787B
:1013D000000703D5606840F4605060606068A968E9
:1013E00020F0F000084360602878C00728D06868C3
:1013F000012810D02168022810D0890700292EDA90
:10140000616821F0030101436160FFF723FF80461B
:1014100041F288390DE021688903EFE78901EDE7A2
:10142000FFF718FFA0EB0801494502D90320BDE8EA
:10143000F0876068696800F00C00B0EB810FEFD1B5
:10144000306800F00700B8420BD9306820F0070080
:1014500038433060306800F00700B84201D0012006
:10146000E5E72878400705D56068E96820F4E06082
:10147000084360602878000706D56068296920F471
:10148000605040EAC100606000F03EF86168084AC0
:10149000C1F30311515CC840064908600648006862
:1014A000FFF7F8FE0020C2E70020024000100240D3
:1014B000A63200082C00002024000020014800680B
:1014C000704700002C000020044805490068496866
:1014D000044AC1F30221515CC84070472C0000202F
:1014E00000100240B6320008044805490068496807
:1014F000044AC1F3C221515CC84070472C0000204F
:1015000000100240B63200080E4A51680E4801F041
:101510000C03042B11D0082B0FD10C48C1F38343CB
:10152000C903C05C0AD55168084AC1F34041921E04
:10153000515C054A5043B0FBF1F070470449484301
:10154000704700000010024000127A009632000836
:1015500000093D002DE9F84F040070D02078C04DFF
:10156000C00749D06868C0F38100012807D06868C7
:10157000C0F38100022809D16868C00306D5286835
:10158000800339D560680028E7D035E06068B0F5A1
:10159000803F0BD010B1B0F5A02F11D0286820F4F7
:1015A00080302860286820F4802002E0286840F419
:1015B00080302860606890B1FFF74CFE06460AE074
:1015C000286840F480202860F0E700BFFFF742FE63
:1015D000801B642873D828688003F7D50CE0FFF7D8
:1015E00039FE064605E000BFFFF734FE801B642885
:1015F000F0D828688003F7D420789A4E80074FF0FF
:1016000001094FF0000839D5686810F00C0F07D0B9
:101610006868C0F38100022809D16868C00306D455
:101620002868800714D52069012808D110E02069B6
:10163000B0B1C6F80090FFF70DFE074605E00AE1DD
:10164000FFF708FEC01B0228C4D828688007F7D51A
:101650002868616920F0F80040EAC10028600DE0C8
:10166000C6F80080FFF7F6FD074604E0FFF7F2FD3D
:10167000C01B022823D828688007F7D420780007E9
:101680002CD57948A169D9B1C0F80090FFF7E2FDE7
:10169000074604E0FFF7DEFDC01B02280FD8686A8A
:1016A0008007F7D571484FF4FA510068B0FBF1F0AC
:1016B000009000BF0098411E0091FAD20EE080E039
:1016C000C0F80080FFF7C6FD074604E0FFF7C2FD43
:1016D000C01B022875D8686A8007F7D420784007B5
:1016E00060D5E8690027C00008D4E86940F0805060
:1016F000E861E869012700F0805000905C480168CB
:10170000C90513D40168834641F480710160FFF775
:10171000A1FD824606E000BFFFF79CFDA0EB0A009A
:1017200064284ED8DBF80000C005F5D5E068012834
:101730000AD008B1052813D0286A20F001002862D9
:10174000286A20F0040002E0286A40F001002862C4
:10175000E06841F2883B98B1FFF77CFD82460BE0E0
:10176000286A40F004002862EEE700BFFFF772FD30
:10177000A0EB0A0159455AD8286A8007F6D50CE033
:10178000FFF768FD824605E0FFF764FDA0EB0A0164
:1017900059454CD8286A8007F6D41FB1E86920F073
:1017A0008050E861E06988B36968C1F3810102296A
:1017B00044D00228C6F8608004D0FFF74BFD0446F1
:1017C00038E034E0FFF746FD074604E0FFF742FD4E
:1017D000C01B02282BD828688001F7D4206AB0F5F6
:1017E000803F05D16868A16820F400300843686034
:1017F000D4E908010843696821F47411084368605A
:10180000C6F86090FFF726FD044606E025E000BF1D
:10181000FFF720FD001B022809D828688001F7D5B2
:101820001BE000BFFFF716FD001B022802D90320B2
:10183000BDE8F88F28688001F4D40EE00128F7D0C5
:101840006868226A00F48031914204D1616A00F430
:101850007010884201D00120EAE70020E8E700008C
:101860000010024000004242800442422C0000204E
:101870000070004010B5401EB0F1807F01D3012000
:1018800010BD4FF0E02460610F21601700F064FF8D
:101890000020A06107202061002010BD7047704724
:1018A00070B590F83C20012A26D0012480F83C40F5
:1018B000022280F83D2003685A689D6822F0700675
:1018C0000A6832435A600D4B02689A4208D0B2F15E
:1018D000804F05D00A4B9A4202D00A4B9A4204D15B
:1018E000496825F080031943916080F83D4000214C
:1018F00080F83C10084670BD022070BD002C0140ED
:10190000000400400008004010B5040003D094F823
:101910003D0010B107E0012010BD002084F83C001C
:10192000204600F01FF8022084F83D00211D2068A9
:1019300000F01AFD012084F8460084F83E0084F887
:101940003F0084F8400084F8410084F8420084F8A5
:10195000430084F8440084F8450084F83D000020EA
:1019600010BD000008B50068B0F1804F12D10A48E0
:10197000C16941F00101C161C069002200F00100AC
:10198000009011461C20FFF7D1FCBDE808401C2048
:10199000FFF7BEBC08BD00000010024070B5044651
:1019A00090F83C000025012817D0012684F83C60FF
:1019B000022084F83D002068826822F0770222F439
:1019C0007F4282600868502838D00DDC20284FD034
:1019D00005DC90B3102811D14AE0022070BD3028F8
:1019E00046D040280AD13BE060282FD070280DD087
:1019F000B0F5805F03D0B0F5005F12D0012584F808
:101A00003D60002084F83C00284670BDCB68D1E9D9
:101A10000121206800F0DEFC2068816841F0770138
:101A200009E0CB68D1E90121206800F0D3FC2068EF
:101A3000816841F480418160E1E719E0CA68496842
:101A4000206800F0D9FC5021206806E0CA68496887
:101A5000206800F0E2FC6021206800F0C5FCCEE7C1
:101A6000CA684968206800F0C7FC40212068F4E794
:101A7000226801461046F0E7704770B504460068DA
:101A800001694FF00005C943890715D4C168C943EE
:101A9000890711D4E91E016101202077206880693F
:101AA0008007204602D0FFF7E7FF04E000F098F837
:101AB000204600F096F8257720680169C943490758
:101AC00017D4C168C943490713D46FF004010161F9
:101AD000022020772068806910F4407F204602D0E1
:101AE000FFF7CAFF04E000F07BF8204600F079F829
:101AF000257720680169C943090716D4C168C9431D
:101B0000090712D46FF008010161042020772068D2
:101B1000C0698007204602D0FFF7AEFF04E000F066
:101B20005FF8204600F05DF8257720680169C94319
:101B3000C90617D4C168C943C90613D46FF0100190
:101B40000161082020772068C06910F4407F20469A
:101B500002D0FFF791FF04E000F042F8204600F0C9
:101B600040F8257720680169C943C90708D1C168D1
:101B7000C943C90704D1891E0161204600F032F82B
:101B800020680169C943090609D4C168C943090627
:101B900005D46FF0800101612046FFF77FFE2068C9
:101BA0000169C943490609D4C168C943490605D436
:101BB0006FF040010161204600F026F820680169BD
:101BC000C94389060BD4C168C943890607D46FF09D
:101BD000200101612046BDE87040FFF760BE70BD86
:101BE0007047704707488188491C89B281804269E3
:101BF00002EBC20303EB0212B1EB820F01D1002111
:101C000081807047080000207047704770470000CF
:101C1000F8B5016804460868CA684B6910F00F0FF0
:101C20004FF0000559D003F0010602F490773743D6
:101C300065D0C10705D0D10503D5616C41F0010124
:101C40006164410705D5D90703D0616C41F00201F9
:101C50006164810705D5D90703D0616C41F00401A7
:101C60006164010707D502F02001314303D0616CA4
:101C700041F008016164616C00293AD0800604D506
:101C8000900602D5204600F009FC20684069616C8E
:101C9000C0F38010090700D460B3204600F0D7FBE2
:101CA00020684069400621D52068143050E8001FA4
:101CB00021F0400140E80012002AF5D1E06BA8B104
:101CC0006D494163E06BFFF76DF9002811D0E06BBF
:101CD000416B01B0BDE8F040084783060FD593067D
:101CE0000DD52046BDE8F84000F0D8BB2046FFF7F0
:101CF0008DFFF8BD2046FFF789FF6564F8BD266BB0
:101D00002023012E7CD1C6067AD5D60678D5086860
:101D10004868009048694FF00206400640D5E16BE4
:101D2000086840680004000CE8D0A28D8242E5D922
:101D3000E085886920282DD020680C3050E8001FED
:101D400021F4807140E80012002AF5D12068143097
:101D500050E8001F21F0010140E80012002AF5D1EF
:101D60002068143050E8001F21F0400140E80012C4
:101D7000002AF5D184F84230256320680C3050E801
:101D8000001F21F0100140E80012002AF5D1E06B9D
:101D9000FFF7E5F86663A08DE18D401A81B22AE075
:101DA000A08DE18D401A81B2E08D0028A6D00029D7
:101DB000A4D022680C3252E8000F20F4907042E860
:101DC0000007002FF5D12068143050E8002F22F0D2
:101DD000010240E80027002FF5D184F84230256346
:101DE00020680C3050E8002F22F0100240E8002359
:101DF000002BF5D166632046FFF707FFF8BDFFE72C
:101E000005062BD5150629D594F841002128F5D1D2
:101E1000A068B0F5805F01D12069B0B1206A411C93
:101E20002162216800784860E08C401E0004000CAC
:101E3000E084E3D12068C16821F08001C16020689E
:101E4000C16841F04001C160D8E7206A0088C0F352
:101E500008004860206A801C2062E5E74006CDD576
:101E60005006CBD5CA68204622F04002CA6084F8EA
:101E7000413000F046F9C1E73F24000870B5040086
:101E800004D094F84100002510B106E0012070BD97
:101E900084F84050204600F023F8242084F84100C4
:101EA0002068C16821F40051C160204600F058FB51
:101EB0002068016921F4904101612068416921F0A5
:101EC0002A0141612068C16841F40051C160656424
:101ED000202084F8410084F842006563002070BD32
:101EE00070B586B0002400940194029403942E4EA1
:101EF00003682E49022003222D4DB34226D18B695F
:101F000043F480438B618B6903F4804304938B69B2
:101F100043F004038B618969039201F00401049189
:101F20000102CDE9001069462846FFF799F8281507
:101F3000CDE90004694628460294FFF791F8002293
:101F400001212520FFF7F2F9252028E0194EB342A0
:101F500027D1CB6943F40033CB61CB6903F4003361
:101F600004938B6943F004038B618969039201F048
:101F7000040104910421CDE9001069462846FFF7C9
:101F80006FF80820CDE90004694628460294FFF75F
:101F900067F8002211462620FFF7C8F92620FFF730
:101FA000B7F906B070BD00000038014000100240D3
:101FB000000801400044004090F84230202B01D03E
:101FC0000220704721B11AB10023036300F024BB43
:101FD0000120704770B500681649884228D1012257
:101FE00015491648FFF7E8FF134C15496088227819
:101FF0000A54401C80B260800A2A01D01E2817D1E2
:1020000000250D540E490FA000F082FB3A210C4828
:10201000FEF7ACF858B1084A0CA11432401CFEF788
:10202000B7F8012803D10AA0616900F071FB65804F
:1020300070BD00000044004008000020E4000020C3
:102040003400002025730D0A000000002564000004
:1020500052656365697665642076616C75653A20C2
:1020600025640D0A000000002DE9F843044690F8AD
:1020700041001F4616460D46202802D00220BDE82A
:10208000F8837DB176B100206064212084F841009E
:10209000FFF7E0F8A6848046E684A068B0F5805F8C
:1020A00002D003E00120EAE7206910B12E460025A6
:1020B0000EE000260CE08021204600F0C8FAA0B90E
:1020C000AEB116F8010B21684860E08C401EE08438
:1020D000E08C43464FF0000200970028EBD14FF010
:1020E0004001204600F0B3FA30B10320C7E735F8CD
:1020F000020BC0F30800E6E7202084F8410000202E
:10210000BDE77047FEE70000F0B585B00024234826
:102110000094019402940394816941F0200181614B
:10212000816901F020010491816941F0040181611C
:10213000816901F004010491816941F00801816124
:102140008069174F00F008000490012240F201213D
:102150003846FFF77AF80125032603960095CDE966
:10216000015469463846FEF77BFF002201213846BC
:10217000FFF76BF80220CDE9000469463846029467
:10218000FEF76EFF6802CDE90005CDE9025669460B
:102190003846FEF765FF05B0F0BD000000100240B4
:1021A000000C014010B586B000241748009401943B
:1021B0000294039404944FF08041059401604721F8
:1021C000C0E9011442F20F71C0E90314802181615A
:1021D000FFF79AFB08B1FEF7C0FE4FF48050009065
:1021E00069460948FFF7DAFB08B1FEF7B6FE04942A
:1021F00004A905480594FFF753FB002801D0FEF71A
:10220000ACFE06B010BD0000540000200C4810B514
:102210000A4901604FF4E1314160002181600C22E4
:10222000C160C0E904128161C161FFF727FE002887
:1022300003D0BDE81040FEF790BE10BD003801404D
:102240009C0000200C4810B50A4901604FF4E131B0
:102250004160002181600C22C160C0E904128161EB
:10226000C161FFF70BFE002803D0BDE81040FEF768
:1022700074BE10BD00440040E4000020FEE7FEE70D
:102280007047000070B500240A20FEF7D7FE184EF4
:10229000002201213046FEF7D8FF02213046FEF72A
:1022A000CFFF0028F9D10025012211463046FEF764
:1022B000CCFF640002213046FEF7C2FF00B1641C6F
:1022C000002201213046FEF7C0FF6D1CEDB2182D33
:1022D000EAD3012211463046FEF7B7FF84F400042A
:1022E000002201213046FEF7B0FF204670BD0000FD
:1022F000000C01407047FEF7B3BF30B58FB0282106
:102300006846FDF728FF14210AA8FDF724FF0121E4
:102310000804CDE900100024029402250491CDE9BF
:1023200007504FF4E01009906846FFF713F908B121
:1023300072B6FEE70F20CDE90A054FF48060CDE9C3
:102340000C4002210AA80E94FFF722F8002801D0C1
:1023500072B6FEE70FB030BD704700000148FFF7CE
:102360008CBB000054000020F0B50268164B174CDF
:10237000174D4FF08047984205D0B84203D0A04295
:1023800001D0A84203D122F070064A683243984235
:1023900005D0B84203D0A04201D0A84203D122F414
:1023A0004074CA6822434C6922F0800222430260D2
:1023B0008A68C2620A688262984201D1096901632F
:1023C00001214161F0BD0000002C014000040040EB
:1023D0000008004010B5846842EA032224F47F44D8
:1023E0000A432243826010BD826822F070020A43D1
:1023F00042F007018160704710B5036A046A24F057
:1024000001040462846924F0F00444EA021423F015
:102410000A020A438461026210BD10B5036A046AAD
:1024200024F010040462846923F0A00324F47044AF
:1024300044EA023243EA01118261016210BD10B523
:10244000406A0021C185C184FFF7E0FB10BD01682F
:102450000C3151E8002F22F4907241E80023002B48
:10246000F5D10168143151E8002F22F0010241E852
:102470000023002BF5D1016B012909D101680C3132
:1024800051E8002F22F0100241E80023002BF5D183
:10249000202180F8421000210163704708B590F8B0
:1024A0004210222901D0022008BD82684FF48053D7
:1024B0009A4201D1016921B1816A9A421BD04AB185
:1024C0000AE00268816A5268C2F308020A80816ADF
:1024D000891C08E0026972B10268526802F07F024A
:1024E0000A70816A491C8162C18D491E0904090C68
:1024F000C18503D01BE002685268F1E70168CA6831
:1025000022F02002CA600168CA6822F48072CA60A0
:1025100001684A6922F001024A61202180F84210D4
:1025200000214163026B012A03D0FFF753FD002015
:1025300008BD016301680C3151E8002F22F0100240
:1025400041E80023002BF5D101680A68D20602D5C4
:102550000A6849680091818DFFF757FBE7E70000A3
:1025600070B5044600680169E26821F440511143E6
:1025700001612169A0680843616908432168CA684C
:1025800041F20C639A430243CA6020684169A26920
:1025900021F44071114341611E492068884202D1F3
:1025A000FEF7A2FF01E0FEF78FFF00EBC00101EB99
:1025B0000012606864218000B2FBF0F3B3FBF1F31A
:1025C0006FF018067343B2FBF0F5B2FBF0F605EBC3
:1025D0008305322303EB0515B5FBF1F5B6FBF1F6E8
:1025E00005F0F00505EB0615B2FBF0F6B2FBF0F0D6
:1025F000B0FBF1F06FF01802504306EB800003EBE4
:102600000010B0FBF1F0216800F00F002844886052
:1026100070BD00000038014081628285C2850021C2
:102620004164222180F84210016921B10168CA6821
:1026300042F48072CA6001684A6942F001024A614C
:102640000068C16841F02001C160002070472DE999
:10265000F041984617460E460446069D27E0681C42
:1026600025D02DB1FEF7F6FDA0EB0800A8421ED93B
:1026700020680C3050E8001F21F4D07140E80012AF
:10268000002AF5D12068143050E8001F21F0010124
:1026900040E80012002AF5D1202084F8410084F897
:1026A0004200002084F840000320BDE8F08120684B
:1026B000006836EA000004D00020B842CFD00020E5
:1026C000F3E70120F9E700000148FFF7A1BA000095
:1026D0009C0000200148FFF79BBA0000E4000020A6
:1026E000FEE7000010B5FFF7CDFD084949F2D2031F
:1026F000C8608A68824201D3101A00E0801A6422FE
:102700005043B0FBF3F0C86010BD0000080000208B
:102710000FB4054B10B503A9044A029800F0FEF867
:1027200010BC5DF814FB000085300008300000206C
:102730000FB4084B10B504A902AA039800F0EEF8F4
:10274000044602A9002000F06CFC204610BC5DF895
:1027500014FB0000233000080907090E002804DBE1
:1027600000F1E02080F80014704700F00F0000F145
:10277000E02080F8141D704702E008C8121F08C14D
:10278000002AFAD170477047002001E001C1121FF2
:10279000002AFBD1704700002DE9FF5F82B00021C5
:1027A000DDE90430020DDDF840B0034318D044F6F3
:1027B0001050A2F2FF3242431514119801281FD085
:1027C000A5EB0B00401C5FEA000A4FF000064E4FDD
:1027D000DFF83891B046504615D5CAF1000413E031
:1027E000119801244AA3012801D16FEA0B01029834
:1027F000119AC0E90031C0E9024206B0BDE8F09F7D
:10280000CBF10000DFE704460021404A491842EBC3
:102810000450CDE9001012E0E00707D032463B46F5
:1028200040464946FDF71DFE8046894632463B46F6
:1028300010461946FDF715FE06460F466410002C9B
:10284000EAD1DDE90401DDE90023BAF1000F06DA7F
:10285000FDF707FE42464B46FDF703FE05E0FDF798
:10286000EDFF42464B46FDF7E9FF04460E460022C7
:10287000284BFEF76BF803D84FF0FF30014607E016
:102880000022254B20463146FDF744FDFEF745F872
:10289000102409E0002C0ADB0A220023FDF7A5FE24
:1028A000039B30321A55641E50EA0102F2D1641CB7
:1028B000039AC4F111031444119A012A03D001228E
:1028C00008430DD10AE0084304D000204FF0110B5B
:1028D000119072E7A3EB0B056D1E0DE05B4504DD67
:1028E0004FF0000205F1010504E003DA4FF00002A9
:1028F000A5F10105002AECD002981199C0E9023136
:10290000C0E9004579E70000000014400000F03FF6
:10291000300000000000F0430000E03F2DE9FF4FD1
:1029200095B09A46884606460025EEE1252877D1DF
:1029300000242746F94A0121039400E0044316F8D5
:10294000013F203B01FA03F01042F7D130782A28EA
:1029500011D06FF02F033078A0F13002092A16D879
:10296000039A44F0020402EB820203EB4202104499
:10297000761C0390EFE758F8042B0392002A03DA41
:10298000504244F40054039044F00204761C307822
:102990002E2816D116F8010F44F004042A280DD071
:1029A0006FF02F023078A0F13003092B09D807EB24
:1029B000870302EB4303C718761CF3E758F8047B40
:1029C000761C30786C280FD006DC4C2817D068288D
:1029D0000DD06A2814D104E0742810D07A280FD1C1
:1029E0000DE044F400140AE044F4801401E044F4DF
:1029F00040147278824202D104F58014761C761C51
:102A0000307866280BD013DC582877D009DC0028F2
:102A100075D04528F6D04628F4D047281AD193E13E
:102A200018E0632835D0642879D0652812D18BE16D
:102A3000702873D008DC6728F1D069286FD06E2821
:102A40000DD06F2806D1ACE073282CD0752874D037
:102A5000782853D05246179990476D1C54E1C4F31F
:102A60000250022809D003280DD0D8F800100428FD
:102A70000DD00D6008F1040846E1D8F80010EA17FF
:102A8000C1E90052F6E7D8F800100D80F2E70D70AA
:102A9000F0E718F8041B8DF8001000208DF80100F5
:102AA000EB46012003E058F804BB4FF0FF3061070C
:102AB0004FF0000102D40DE009F101018946B9424D
:102AC0000FDA8145F8DB1BF809100029F4D108E082
:102AD00009F1010189468142FADB1BF8091000293E
:102AE000F6D103985346A0EB090721463846179ABA
:102AF00000F080FA284400EB090507E044E008E113
:102B00000DE01BF8010B524617999047B9F10109E6
:102B1000F7D2534621463846179AF2E039E00A21A7
:102B2000C4F302524FF0000B0091022A06D058F86D
:102B3000040BC117032A09D00AE023E008F10700BB
:102B400020F00702F2E80201904605E000B2C1174A
:102B5000042A01D140B2C117002906DA0A46002131
:102B6000404261EB02012D2202E0220504D52B2216
:102B70008DF80420012203E0E20701D02022F7E7CC
:102B8000914657E00A2100E010214FF0000B009120
:102B90000BE010214FF0000B44F0040408270091D3
:102BA00003E008204FF0000B0090C4F30252022A09
:102BB00005D058F8040B0021032A08D008E008F1DA
:102BC000070020F00702F2E80201904603E080B21D
:102BD000042A00D1C0B24FF0000922072AD532786A
:102BE000702A07D0DDF800C08CF0100C5CEA0B0CEA
:102BF00005D00EE040228DF80420012208E050EAC2
:102C0000010306D030238DF804308DF80520022210
:102C10009146009B83F0080353EA0B030AD150EA64
:102C2000010201D1620705D530228DF804204FF052
:102C300001097F1E3278582A04D039A20C920CAABE
:102C400002920BE03BA2F9E75B46009AFDF7CDFC50
:102C50000C9B9B5C029A521E0292137050EA010276
:102C6000F2D1029804A9081A00F1200B600702D5DE
:102C700024F4803400E001275F4502DDA7EB0B0060
:102C800000E0002000EB0B01009003984944401A3B
:102C90000390E00306D453462146179A039800F0A8
:102CA000A9F90544002706E001A85246C05D17991E
:102CB00090476D1C7F1C4F45F6DBE0030CD5534657
:102CC0002146179A039800F095F9054404E0302056
:102CD0005246179990476D1C0099481E0090002994
:102CE000F5DC08E00298029952460078491C0291EE
:102CF000179990476D1CBBF10001ABF1010BF1DCA2
:102D00005BE100F065F90544761C307800287FF41B
:102D10000DAE19B02846BDE8F08F0000092801006B
:102D20003031323334353637383961626364656641
:102D30000000000030313233343536373839414203
:102D40004344454600000000600700D4062708F110
:102D5000070020F00700F0E80223804603F0004C53
:102D60005FEA0C0001D097A009E0200501D596A0EC
:102D700005E0E00701D095A001E0AFF24C00139010
:102D8000307823F0004365280CD006DC452809D0B4
:102D900046281DD047287FD13BE0662818D06728F9
:102DA0007AD136E00021112F01DB112000E0781CE0
:102DB000CDE9000104A90CA8FFF7EEFCDDE90D0147
:102DC0000C9A4FF0000B07F10109109200914EE0B0
:102DD0004FF000400097CDE9011004A90CA8FFF7BF
:102DE000DBFCDDE90D020C9B0F994FF0000B9146C7
:102DF0001093009211B9791C00EB0109B7EB09009F
:102E000003D4C0F1FF3B07F10109A9EB07000190D2
:102E100042E0012F00DA01270021112F01DD1120EE
:102E200000E03846CDE9000104A90CA8FFF7B4FC86
:102E3000DDE90D010C9A00914FF0000BB94610929C
:102E400021070FD4009A4A4503DA914601E0A9F11F
:102E50000109B9F1010F05DD109AA9F10101515CD9
:102E60003029F4D0B84202DA10F1040F03DA01215C
:102E7000CDE9011010E0002803DC8344A9EB000138
:102E800002E0411C494500DD8946A0EB0B00401CD7
:102E900001904FF000400290200705D4019848456A
:102EA00002DB4FF0FF30019000208DF84B000298BC
:102EB0000DF14B07B0F1004F25D002200C902B20D4
:102EC0000D90029800280CDA404202902D200D90BF
:102ED00007E00A210298FDF772FB3031029007F8F3
:102EE000011D0C99481E0C900029F2DC0298002864
:102EF000EFD1791E0D980870307800F0200040F076
:102F0000450007F8020D11A8C01BC01D02901398C0
:102F1000007800B1012000EB0901019801EBE0719C
:102F2000029801440398401A401E0390E00306D41F
:102F300053462146179A039800F05CF8054413980D
:102F4000007818B15246179990476D1CE00323D5BD
:102F500053462146179A039800F04CF805441BE0AD
:102F6000BBF1000F07DB0098584504DD1098179956
:102F700010F80B0001E01799302052469047019855
:102F80000BF1010B401E05F10105019004D12E202B
:102F90005246179990476D1CB9F10001A9F101093A
:102FA000DEDC05E017F8010B5246179990476D1CBF
:102FB0000299481E02900029F4DC53462146179AD4
:102FC00003989EE62D0000002B000000200000006A
:102FD0002DE9F041044600251E461746880404D416
:102FE00005E039462020B0476D1C641EF9D52846FF
:102FF000BDE8F0812DE9F041044600251E469046CB
:10300000C80301D5302700E02027880404D505E057
:1030100041463846B0476D1C641EF9D52846BDE8C8
:10302000F0810A68531C0B601070704710B50BA03C
:1030300000F08AF84FF47A742046FDF7FFFF09A0EC
:1030400000F082F840F6B830FDF7F8FF09A000F074
:103050007BF82046BDE81040FDF7F0BF41540D0A53
:103060000000000041542B524553544F52450D0A65
:103070000000000041542B43574D4F44453D320D55
:103080000A00000013B54FF0FF33012269460248E1
:10309000FEF7EAFF00981CBD9C000020FEF7E8F850
:1030A000FFF72BF9FFF730F8FFF7B0F8FFF7CAF892
:1030B000FFF778F815A0FFF72BFBFFF7B7FF032307
:1030C000052215A117A000F099F841F6967000F0BE
:1030D000B7F8012215491648FEF76EFF4FF47A70D3
:1030E000FDF7ACFFFFF7CEF8104C0146A06011A031
:1030F000FFF70EFBFFF7F6FA2061FDF713FE60699C
:103100004FF47A714843FDF799FFF3E7616C6C2047
:103110006F6B200D0A0000003132333435363738FA
:103120000000000041544B3636000000080000202B
:10313000E40000207765696768745F66697273747C
:103140003D25640A0000000010B50446FDF718F89C
:10315000214682B2BDE810404FF0FF330148FEF730
:1031600083BF0000E40000202DE9F041074694B041
:103170001E4688461046FDF7F3F904460D464046C4
:10318000FDF7EEF98DE8700002460B460FA103A88B
:10319000FFF7CEFA03A8FCF7F3FF03463A4611A166
:1031A0000BA8FFF7C5FA0BA8FFF7CEFFC820FDF765
:1031B00045FF03A8FCF7E4FF82B24FF0FF3303A9F9
:1031C0000D48FEF751FF14B0BDE8F081252E3166A1
:1031D00054454D252E316648554D253034645745AC
:1031E0004900000041542B43495053454E443D256E
:1031F000642C25640D0A0000E400002000B58DB0A9
:10320000CDE900230B46024606A102A8FFF790FA7B
:1032100002A8FFF799FF4FF47A70FDF70FFF0DB08A
:1032200000BD000041542B43575341503D222573AC
:10323000222C222573222C25642C25640D0A0000E3
:1032400030B5044689B00AA0FFF77EFF4FF47A75C7
:103250002846FDF7F3FE224609A16846FFF768FA03
:103260006846FFF771FF2846FDF7E8FE09B030BD5C
:1032700041542B4349504D55583D310D0A00000033
:1032800041542B4349505345525645523D312C250C
:10329000640D0A00010202030405060708090A0B6F
:1032A0000C0D0E0F101000000000000000000102C5
:1032B0000304060708090000000001020304DDDD25
:1032C000DDDDDCBBBBDDDDDDDDDDDDDDDDDD98880D
:1032D00088888888888877777777778888888555F9
:1032E000555666666666666666666668888883336F
:1032F000333222222222222222222228888D0000FA
:103300002033000800000020340000007827000867
:103310005433000834000020FC0400008827000813
:10332000000000000000000000000000000000009D
:10333000000000000000000000000000010000008C
:103340000100000010000000000000000024F40054
:043350000000000079
:04000005080000ED02
:00000001FF
